:0300000002088073
:0C088000787FE4F6D8FD7581070208437C
:0B086A00AF03AE021208007F107E27D3
:0B087500EF1FAC0670011E4C70F62255
:10080000E4F5A0EE703CEFB408005036900813F801
:1008100028287302082B02082E020831020834022D
:10082000083702083A02083D020840D2A022D2A1AD
:1008300022D2A222D2A322D2A422D2A522D2A6229E
:03084000D2A7221A
:10084300E4FBFA12086A0BBB00010AEB64084A7066
:10085300F27A007B07C3EA6480948040E312086A5B
:07086300EB1B70F11A80EE9F
:00000001FF
