:030000000208B241
:0C08B200787FE4F6D8FD7581090208008B
:0B08BE00EF1FAC0670011E4C70F6220C
:10085E00EE703CEFB40800503690086EF8282873FE
:10086E0002088602088902088C02088F020892028A
:10087E00089502089802089BD2A022D2A122D2A2E9
:10088E0022D2A322D2A422D2A522D2A622D2A7223B
:10089E00E4F5A012085EAF05AE0412085E7F107E6E
:0408AE00270208BE57
:10080000E4F508F5097B07FAD3E5099407E50864E0
:10081000809480501AAD03AC02AF09AE0812089E56
:100820000509E50970020508EB1B70DC1A80D9E4A4
:10083000F508F509FA7B07D3E5099407E508648014
:10084000948050BCAF03AE02AD09AC0812089E05FF
:0E08500009E50970020508EB1B70DC1A80D95F
:00000001FF
