:030000000208EB08
:0C08EB00787FE4F6D8FD758107020865EF
:0B090300EF1FAC0670011E4C70F622C6
:10089100E4F5A0D2A2D2A3D2A4D2A5D2A6D2A722F5
:08091800E4F5A0D2A5D2A6224D
:0E08C100E4F5A0C2A1C2A3C2A4D2A6D2A7226F
:0E08CF00E4F5A0D2A1D2A4D2A5D2A6D2A7222F
:0C08F700E4F5A0D2A1D2A2D2A5D2A62284
:0E08DD00E4F5A0D2A1D2A2D2A4D2A5D2A72225
:1008A100E4F5A0D2A1D2A2D2A3D2A4D2A5D2A722EA
:0A090E00E4F5A0D2A5D2A6D2A722DC
:10087F00E4F5A0D2A1D2A2D2A3D2A4D2A5D2A6D25D
:02088F00A7229E
:1008B100E4F5A0D2A1D2A2D2A4D2A5D2A6D2A722D7
:10080000EE705BEFB40A005055900810F82828737A
:1008100002082E02083302083802083D020842028C
:10082000084702084C02085102085602085B1208E9
:1008300091802B12091880261208C180211208CF3E
:10084000801C1208F780171208DD80121208A180A0
:100850000D12090E800812087F80031208B17FA0D4
:050860007E8602090381
:10086500E4F5A0E4FBFAAF03AE021208000BBB00EF
:0A087500010AEB640A4A70EE80E904
:00000001FF
